{
  "contractName": "Item",
  "abi": [
    {
      "inputs": [
        {
          "internalType": "contract ItemManager",
          "name": "_parentContract",
          "type": "address"
        },
        {
          "internalType": "uint256",
          "name": "_priceInWei",
          "type": "uint256"
        },
        {
          "internalType": "uint256",
          "name": "_index",
          "type": "uint256"
        }
      ],
      "stateMutability": "nonpayable",
      "type": "constructor"
    },
    {
      "stateMutability": "nonpayable",
      "type": "fallback"
    },
    {
      "inputs": [],
      "name": "index",
      "outputs": [
        {
          "internalType": "uint256",
          "name": "",
          "type": "uint256"
        }
      ],
      "stateMutability": "view",
      "type": "function"
    },
    {
      "inputs": [],
      "name": "paidFrom",
      "outputs": [
        {
          "internalType": "address",
          "name": "",
          "type": "address"
        }
      ],
      "stateMutability": "view",
      "type": "function"
    },
    {
      "inputs": [],
      "name": "paidWei",
      "outputs": [
        {
          "internalType": "uint256",
          "name": "",
          "type": "uint256"
        }
      ],
      "stateMutability": "view",
      "type": "function"
    },
    {
      "inputs": [],
      "name": "priceInWei",
      "outputs": [
        {
          "internalType": "uint256",
          "name": "",
          "type": "uint256"
        }
      ],
      "stateMutability": "view",
      "type": "function"
    },
    {
      "stateMutability": "payable",
      "type": "receive"
    },
    {
      "inputs": [],
      "name": "pay",
      "outputs": [],
      "stateMutability": "payable",
      "type": "function"
    }
  ],
  "bytecode": "0x608060405234801561001057600080fd5b5060405161088b38038061088b83398181016040528101906100329190610134565b816000819055508060038190555082600460006101000a81548173ffffffffffffffffffffffffffffffffffffffff021916908373ffffffffffffffffffffffffffffffffffffffff160217905550505050610187565b600080fd5b600073ffffffffffffffffffffffffffffffffffffffff82169050919050565b60006100b98261008e565b9050919050565b60006100cb826100ae565b9050919050565b6100db816100c0565b81146100e657600080fd5b50565b6000815190506100f8816100d2565b92915050565b6000819050919050565b610111816100fe565b811461011c57600080fd5b50565b60008151905061012e81610108565b92915050565b60008060006060848603121561014d5761014c610089565b5b600061015b868287016100e9565b935050602061016c8682870161011f565b925050604061017d8682870161011f565b9150509250925092565b6106f5806101966000396000f3fe60806040526004361061004e5760003560e01c80631b9265b81461006b5780632986c0e5146100755780633c8da588146100a057806383d12eef146100cb578063fd456049146100f65761005d565b3661005d5761005b610121565b005b34801561006957600080fd5b005b610073610121565b005b34801561008157600080fd5b5061008a610366565b60405161009791906103b7565b60405180910390f35b3480156100ac57600080fd5b506100b561036c565b6040516100c291906103b7565b60405180910390f35b3480156100d757600080fd5b506100e0610372565b6040516100ed91906103b7565b60405180910390f35b34801561010257600080fd5b5061010b610378565b6040516101189190610413565b60405180910390f35b6000543414610165576040517f08c379a000000000000000000000000000000000000000000000000000000000815260040161015c906104b1565b60405180910390fd5b6000600154146101aa576040517f08c379a00000000000000000000000000000000000000000000000000000000081526004016101a19061051d565b60405180910390fd5b34600160008282546101bc919061056c565b9250508190555033600260006101000a81548173ffffffffffffffffffffffffffffffffffffffff021916908373ffffffffffffffffffffffffffffffffffffffff1602179055506000600460009054906101000a900473ffffffffffffffffffffffffffffffffffffffff1673ffffffffffffffffffffffffffffffffffffffff163460035460405160240161025391906103b7565b6040516020818303038152906040527f800fb83f000000000000000000000000000000000000000000000000000000007bffffffffffffffffffffffffffffffffffffffffffffffffffffffff19166020820180517bffffffffffffffffffffffffffffffffffffffffffffffffffffffff83818316178352505050506040516102dd919061063c565b60006040518083038185875af1925050503d806000811461031a576040519150601f19603f3d011682016040523d82523d6000602084013e61031f565b606091505b5050905080610363576040517f08c379a000000000000000000000000000000000000000000000000000000000815260040161035a9061069f565b60405180910390fd5b50565b60035481565b60005481565b60015481565b600260009054906101000a900473ffffffffffffffffffffffffffffffffffffffff1681565b6000819050919050565b6103b18161039e565b82525050565b60006020820190506103cc60008301846103a8565b92915050565b600073ffffffffffffffffffffffffffffffffffffffff82169050919050565b60006103fd826103d2565b9050919050565b61040d816103f2565b82525050565b60006020820190506104286000830184610404565b92915050565b600082825260208201905092915050565b7f576520646f6e277420737570706f7274207061727469616c207061796d656e7460008201527f7300000000000000000000000000000000000000000000000000000000000000602082015250565b600061049b60218361042e565b91506104a68261043f565b604082019050919050565b600060208201905081810360008301526104ca8161048e565b9050919050565b7f4974656d20697320616c72656164792070616964210000000000000000000000600082015250565b600061050760158361042e565b9150610512826104d1565b602082019050919050565b60006020820190508181036000830152610536816104fa565b9050919050565b7f4e487b7100000000000000000000000000000000000000000000000000000000600052601160045260246000fd5b60006105778261039e565b91506105828361039e565b9250827fffffffffffffffffffffffffffffffffffffffffffffffffffffffffffffffff038211156105b7576105b661053d565b5b828201905092915050565b600081519050919050565b600081905092915050565b60005b838110156105f65780820151818401526020810190506105db565b83811115610605576000848401525b50505050565b6000610616826105c2565b61062081856105cd565b93506106308185602086016105d8565b80840191505092915050565b6000610648828461060b565b915081905092915050565b7f44656c697665727920646964206e6f7420776f726b0000000000000000000000600082015250565b600061068960158361042e565b915061069482610653565b602082019050919050565b600060208201905081810360008301526106b88161067c565b905091905056fea26469706673582212206a8a84d2e43c58074ffdf1e27f378a42352d35edcd02ddc5edba4bc66318d13564736f6c634300080e0033",
  "immutableReferences": {},
  "source": "// SPDX-License-Identifier: GPL-3.0\n\npragma solidity ^0.8.0;\n\nimport \"./ItemManager.sol\";\n\ncontract Item {\n    uint public priceInWei;\n    uint public paidWei;\n    address public paidFrom;\n\n    uint public index;\n\n    ItemManager parentContract;\n    \n    constructor(ItemManager _parentContract, uint _priceInWei, uint _index) public { \n        priceInWei = _priceInWei;\n        index = _index;\n        parentContract = _parentContract;\n    }\n\n    function pay() public payable {\n        require(msg.value == priceInWei, \"We don't support partial payments\"); \n        require(paidWei == 0, \"Item is already paid!\");\n        paidWei += msg.value;\n        paidFrom = msg.sender;\n        (bool success, ) = address(parentContract).call{value:msg.value}(abi.encodeWithSignature(\"triggerPayment(uint256)\", index));\n        require(success, \"Delivery did not work\"); \n    }\n\n    receive() external payable {\n        pay();\n    }\n\n    fallback () external {\n    }\n}",
  "sourcePath": "/Users/oleksandrrokytskyi/projects/blockchain/item-manager-smart-contract/contracts/Item.sol",
  "compiler": {
    "name": "solc",
    "version": "0.8.14+commit.80d49f37.Emscripten.clang"
  },
  "schemaVersion": "3.4.7",
  "updatedAt": "2022-05-19T10:28:12.654Z",
  "devdoc": {
    "kind": "dev",
    "methods": {},
    "version": 1
  },
  "userdoc": {
    "kind": "user",
    "methods": {},
    "version": 1
  }
}