{
  "contractName": "ItemManager",
  "abi": [
    {
      "anonymous": false,
      "inputs": [
        {
          "indexed": false,
          "internalType": "uint256",
          "name": "_itemIndex",
          "type": "uint256"
        },
        {
          "indexed": false,
          "internalType": "uint256",
          "name": "_step",
          "type": "uint256"
        },
        {
          "indexed": false,
          "internalType": "address",
          "name": "_address",
          "type": "address"
        }
      ],
      "name": "SupplyChainStep",
      "type": "event"
    },
    {
      "inputs": [],
      "name": "_owner",
      "outputs": [
        {
          "internalType": "address",
          "name": "",
          "type": "address"
        }
      ],
      "stateMutability": "view",
      "type": "function",
      "constant": true
    },
    {
      "inputs": [],
      "name": "isOwner",
      "outputs": [
        {
          "internalType": "bool",
          "name": "",
          "type": "bool"
        }
      ],
      "stateMutability": "view",
      "type": "function",
      "constant": true
    },
    {
      "inputs": [
        {
          "internalType": "uint256",
          "name": "",
          "type": "uint256"
        }
      ],
      "name": "items",
      "outputs": [
        {
          "internalType": "contract Item",
          "name": "_item",
          "type": "address"
        },
        {
          "internalType": "address",
          "name": "_paidFrom",
          "type": "address"
        },
        {
          "internalType": "string",
          "name": "_identifier",
          "type": "string"
        },
        {
          "internalType": "uint256",
          "name": "_priceInWei",
          "type": "uint256"
        },
        {
          "internalType": "enum ItemManager.SupplyChainSteps",
          "name": "_step",
          "type": "uint8"
        }
      ],
      "stateMutability": "view",
      "type": "function",
      "constant": true
    },
    {
      "inputs": [
        {
          "internalType": "string",
          "name": "_identifier",
          "type": "string"
        },
        {
          "internalType": "uint256",
          "name": "_priceInWei",
          "type": "uint256"
        }
      ],
      "name": "createItem",
      "outputs": [],
      "stateMutability": "nonpayable",
      "type": "function"
    },
    {
      "inputs": [
        {
          "internalType": "uint256",
          "name": "_index",
          "type": "uint256"
        }
      ],
      "name": "triggerPayment",
      "outputs": [],
      "stateMutability": "payable",
      "type": "function",
      "payable": true
    },
    {
      "inputs": [
        {
          "internalType": "uint256",
          "name": "_index",
          "type": "uint256"
        }
      ],
      "name": "triggerDelivery",
      "outputs": [],
      "stateMutability": "nonpayable",
      "type": "function"
    },
    {
      "inputs": [],
      "name": "getItems",
      "outputs": [
        {
          "components": [
            {
              "internalType": "contract Item",
              "name": "_item",
              "type": "address"
            },
            {
              "internalType": "address",
              "name": "_paidFrom",
              "type": "address"
            },
            {
              "internalType": "string",
              "name": "_identifier",
              "type": "string"
            },
            {
              "internalType": "uint256",
              "name": "_priceInWei",
              "type": "uint256"
            },
            {
              "internalType": "enum ItemManager.SupplyChainSteps",
              "name": "_step",
              "type": "uint8"
            }
          ],
          "internalType": "struct ItemManager.S_Item[]",
          "name": "",
          "type": "tuple[]"
        }
      ],
      "stateMutability": "view",
      "type": "function",
      "constant": true
    }
  ],
  "bytecode": "0x608060405234801561001057600080fd5b50336000806101000a81548173ffffffffffffffffffffffffffffffffffffffff021916908373ffffffffffffffffffffffffffffffffffffffff16021790555061244c806100606000396000f3fe6080604052600436106200007a5760003560e01c80638f32d59b11620000555780638f32d59b14620000fd578063b2bdfa7b146200012d578063bfb231d2146200015d578063cd31831e14620001a5576200007a565b8063410d59cc146200007f578063800fb83f14620000af5780638c55174214620000cf575b600080fd5b3480156200008c57600080fd5b5062000097620001d3565b604051620000a6919062001366565b60405180910390f35b620000cd6004803603810190620000c79190620013cf565b620005e1565b005b348015620000dc57600080fd5b50620000fb6004803603810190620000f5919062001552565b6200098e565b005b3480156200010a57600080fd5b506200011562000b9c565b604051620001249190620015d5565b60405180910390f35b3480156200013a57600080fd5b506200014562000bf3565b60405162000154919062001603565b60405180910390f35b3480156200016a57600080fd5b50620001896004803603810190620001839190620013cf565b62000c17565b6040516200019c959493929190620016a5565b60405180910390f35b348015620001b257600080fd5b50620001d16004803603810190620001cb9190620013cf565b62000d2a565b005b6060600060025467ffffffffffffffff811115620001f657620001f56200140b565b5b6040519080825280602002602001820160405280156200023357816020015b6200021f62000ef9565b815260200190600190039081620002155790505b509050600080600090505b60025481101562000516576200025362000b9c565b80620002c057503373ffffffffffffffffffffffffffffffffffffffff166001600083815260200190815260200160002060010160009054906101000a900473ffffffffffffffffffffffffffffffffffffffff1673ffffffffffffffffffffffffffffffffffffffff16145b8062000319575060006002811115620002de57620002dd620011c2565b5b6001600083815260200190815260200160002060040160009054906101000a900460ff166002811115620003175762000316620011c2565b5b145b156200050057600160008281526020019081526020016000206040518060a00160405290816000820160009054906101000a900473ffffffffffffffffffffffffffffffffffffffff1673ffffffffffffffffffffffffffffffffffffffff1673ffffffffffffffffffffffffffffffffffffffff1681526020016001820160009054906101000a900473ffffffffffffffffffffffffffffffffffffffff1673ffffffffffffffffffffffffffffffffffffffff1673ffffffffffffffffffffffffffffffffffffffff168152602001600282018054620003fb9062001738565b80601f0160208091040260200160405190810160405280929190818152602001828054620004299062001738565b80156200047a5780601f106200044e576101008083540402835291602001916200047a565b820191906000526020600020905b8154815290600101906020018083116200045c57829003601f168201915b50505050508152602001600382015481526020016004820160009054906101000a900460ff166002811115620004b557620004b4620011c2565b5b6002811115620004ca57620004c9620011c2565b5b81525050838381518110620004e457620004e36200176d565b5b60200260200101819052508180620004fc90620017cb565b9250505b80806200050d90620017cb565b9150506200023e565b5060008167ffffffffffffffff8111156200053657620005356200140b565b5b6040519080825280602002602001820160405280156200057357816020015b6200055f62000ef9565b815260200190600190039081620005555790505b50905060005b82811015620005d7578381815181106200059857620005976200176d565b5b6020026020010151828281518110620005b657620005b56200176d565b5b60200260200101819052508080620005ce90620017cb565b91505062000579565b5080935050505090565b60006001600083815260200190815260200160002060000160009054906101000a900473ffffffffffffffffffffffffffffffffffffffff1690503373ffffffffffffffffffffffffffffffffffffffff168173ffffffffffffffffffffffffffffffffffffffff16146200068d576040517f08c379a000000000000000000000000000000000000000000000000000000000815260040162000684906200188e565b60405180910390fd5b348173ffffffffffffffffffffffffffffffffffffffff16633c8da5886040518163ffffffff1660e01b8152600401602060405180830381865afa158015620006da573d6000803e3d6000fd5b505050506040513d601f19601f82011682018060405250810190620007009190620018c7565b1462000743576040517f08c379a00000000000000000000000000000000000000000000000000000000081526004016200073a9062001949565b60405180910390fd5b600060028111156200075a5762000759620011c2565b5b60016000600254815260200190815260200160002060040160009054906101000a900460ff166002811115620007955762000794620011c2565b5b14620007d8576040517f08c379a0000000000000000000000000000000000000000000000000000000008152600401620007cf90620019e1565b60405180910390fd5b600180600084815260200190815260200160002060040160006101000a81548160ff02191690836002811115620008145762000813620011c2565b5b02179055506001600083815260200190815260200160002060000160009054906101000a900473ffffffffffffffffffffffffffffffffffffffff1673ffffffffffffffffffffffffffffffffffffffff1663fd4560496040518163ffffffff1660e01b8152600401602060405180830381865afa1580156200089b573d6000803e3d6000fd5b505050506040513d601f19601f82011682018060405250810190620008c1919062001a34565b6001600084815260200190815260200160002060010160006101000a81548173ffffffffffffffffffffffffffffffffffffffff021916908373ffffffffffffffffffffffffffffffffffffffff1602179055507fa4035636e99f06b7651a604c1019fa4e8779fe68ef27eeb74dff2de348f6199b826001600085815260200190815260200160002060040160009054906101000a900460ff16600281111562000970576200096f620011c2565b5b83604051620009829392919062001a66565b60405180910390a15050565b6200099862000b9c565b620009da576040517f08c379a0000000000000000000000000000000000000000000000000000000008152600401620009d19062001af3565b60405180910390fd5b60003082600254604051620009ef9062000f69565b620009fd9392919062001b4e565b604051809103906000f08015801562000a1a573d6000803e3d6000fd5b5090508060016000600254815260200190815260200160002060000160006101000a81548173ffffffffffffffffffffffffffffffffffffffff021916908373ffffffffffffffffffffffffffffffffffffffff1602179055508160016000600254815260200190815260200160002060030181905550600060016000600254815260200190815260200160002060040160006101000a81548160ff0219169083600281111562000ad05762000acf620011c2565b5b021790555082600160006002548152602001908152602001600020600201908051906020019062000b0392919062000f77565b507fa4035636e99f06b7651a604c1019fa4e8779fe68ef27eeb74dff2de348f6199b60025460016000600254815260200190815260200160002060040160009054906101000a900460ff16600281111562000b635762000b62620011c2565b5b8360405162000b759392919062001a66565b60405180910390a16002600081548092919062000b9290620017cb565b9190505550505050565b60008060009054906101000a900473ffffffffffffffffffffffffffffffffffffffff1673ffffffffffffffffffffffffffffffffffffffff163373ffffffffffffffffffffffffffffffffffffffff1614905090565b60008054906101000a900473ffffffffffffffffffffffffffffffffffffffff1681565b60016020528060005260406000206000915090508060000160009054906101000a900473ffffffffffffffffffffffffffffffffffffffff16908060010160009054906101000a900473ffffffffffffffffffffffffffffffffffffffff169080600201805462000c889062001738565b80601f016020809104026020016040519081016040528092919081815260200182805462000cb69062001738565b801562000d075780601f1062000cdb5761010080835404028352916020019162000d07565b820191906000526020600020905b81548152906001019060200180831162000ce957829003601f168201915b5050505050908060030154908060040160009054906101000a900460ff16905085565b62000d3462000b9c565b62000d76576040517f08c379a000000000000000000000000000000000000000000000000000000000815260040162000d6d9062001af3565b60405180910390fd5b6001600281111562000d8d5762000d8c620011c2565b5b6001600083815260200190815260200160002060040160009054906101000a900460ff16600281111562000dc65762000dc5620011c2565b5b1462000e09576040517f08c379a000000000000000000000000000000000000000000000000000000000815260040162000e0090620019e1565b60405180910390fd5b60026001600083815260200190815260200160002060040160006101000a81548160ff0219169083600281111562000e465762000e45620011c2565b5b02179055507fa4035636e99f06b7651a604c1019fa4e8779fe68ef27eeb74dff2de348f6199b816001600084815260200190815260200160002060040160009054906101000a900460ff16600281111562000ea65762000ea5620011c2565b5b6001600085815260200190815260200160002060000160009054906101000a900473ffffffffffffffffffffffffffffffffffffffff1660405162000eee9392919062001a66565b60405180910390a150565b6040518060a00160405280600073ffffffffffffffffffffffffffffffffffffffff168152602001600073ffffffffffffffffffffffffffffffffffffffff16815260200160608152602001600081526020016000600281111562000f635762000f62620011c2565b5b81525090565b61088b8062001b8c83390190565b82805462000f859062001738565b90600052602060002090601f01602090048101928262000fa9576000855562000ff5565b82601f1062000fc457805160ff191683800117855562000ff5565b8280016001018555821562000ff5579182015b8281111562000ff457825182559160200191906001019062000fd7565b5b50905062001004919062001008565b5090565b5b808211156200102357600081600090555060010162001009565b5090565b600081519050919050565b600082825260208201905092915050565b6000819050602082019050919050565b600073ffffffffffffffffffffffffffffffffffffffff82169050919050565b6000819050919050565b60006200109e62001098620010928462001053565b62001073565b62001053565b9050919050565b6000620010b2826200107d565b9050919050565b6000620010c682620010a5565b9050919050565b620010d881620010b9565b82525050565b6000620010eb8262001053565b9050919050565b620010fd81620010de565b82525050565b600081519050919050565b600082825260208201905092915050565b60005b838110156200113f57808201518184015260208101905062001122565b838111156200114f576000848401525b50505050565b6000601f19601f8301169050919050565b6000620011738262001103565b6200117f81856200110e565b9350620011918185602086016200111f565b6200119c8162001155565b840191505092915050565b6000819050919050565b620011bc81620011a7565b82525050565b7f4e487b7100000000000000000000000000000000000000000000000000000000600052602160045260246000fd5b60038110620012055762001204620011c2565b5b50565b60008190506200121882620011f1565b919050565b60006200122a8262001208565b9050919050565b6200123c816200121d565b82525050565b600060a0830160008301516200125c6000860182620010cd565b506020830151620012716020860182620010f2565b50604083015184820360408601526200128b828262001166565b9150506060830151620012a26060860182620011b1565b506080830151620012b7608086018262001231565b508091505092915050565b6000620012d0838362001242565b905092915050565b6000602082019050919050565b6000620012f28262001027565b620012fe818562001032565b935083602082028501620013128562001043565b8060005b85811015620013545784840389528151620013328582620012c2565b94506200133f83620012d8565b925060208a0199505060018101905062001316565b50829750879550505050505092915050565b60006020820190508181036000830152620013828184620012e5565b905092915050565b6000604051905090565b600080fd5b600080fd5b620013a981620011a7565b8114620013b557600080fd5b50565b600081359050620013c9816200139e565b92915050565b600060208284031215620013e857620013e762001394565b5b6000620013f884828501620013b8565b91505092915050565b600080fd5b600080fd5b7f4e487b7100000000000000000000000000000000000000000000000000000000600052604160045260246000fd5b620014458262001155565b810181811067ffffffffffffffff821117156200146757620014666200140b565b5b80604052505050565b60006200147c6200138a565b90506200148a82826200143a565b919050565b600067ffffffffffffffff821115620014ad57620014ac6200140b565b5b620014b88262001155565b9050602081019050919050565b82818337600083830152505050565b6000620014eb620014e5846200148f565b62001470565b9050828152602081018484840111156200150a576200150962001406565b5b62001517848285620014c5565b509392505050565b600082601f83011262001537576200153662001401565b5b813562001549848260208601620014d4565b91505092915050565b600080604083850312156200156c576200156b62001394565b5b600083013567ffffffffffffffff8111156200158d576200158c62001399565b5b6200159b858286016200151f565b9250506020620015ae85828601620013b8565b9150509250929050565b60008115159050919050565b620015cf81620015b8565b82525050565b6000602082019050620015ec6000830184620015c4565b92915050565b620015fd81620010de565b82525050565b60006020820190506200161a6000830184620015f2565b92915050565b6200162b81620010b9565b82525050565b600082825260208201905092915050565b60006200164f8262001103565b6200165b818562001631565b93506200166d8185602086016200111f565b620016788162001155565b840191505092915050565b6200168e81620011a7565b82525050565b6200169f816200121d565b82525050565b600060a082019050620016bc600083018862001620565b620016cb6020830187620015f2565b8181036040830152620016df818662001642565b9050620016f0606083018562001683565b620016ff608083018462001694565b9695505050505050565b7f4e487b7100000000000000000000000000000000000000000000000000000000600052602260045260246000fd5b600060028204905060018216806200175157607f821691505b60208210810362001767576200176662001709565b5b50919050565b7f4e487b7100000000000000000000000000000000000000000000000000000000600052603260045260246000fd5b7f4e487b7100000000000000000000000000000000000000000000000000000000600052601160045260246000fd5b6000620017d882620011a7565b91507fffffffffffffffffffffffffffffffffffffffffffffffffffffffffffffffff82036200180d576200180c6200179c565b5b600182019050919050565b7f4f6e6c79206974656d732061726520616c6c6f77656420746f2075706461746560008201527f207468656d73656c766573000000000000000000000000000000000000000000602082015250565b600062001876602b8362001631565b9150620018838262001818565b604082019050919050565b60006020820190508181036000830152620018a98162001867565b9050919050565b600081519050620018c1816200139e565b92915050565b600060208284031215620018e057620018df62001394565b5b6000620018f084828501620018b0565b91505092915050565b7f4e6f742066756c6c792070616964207965740000000000000000000000000000600082015250565b60006200193160128362001631565b91506200193e82620018f9565b602082019050919050565b60006020820190508181036000830152620019648162001922565b9050919050565b7f4974656d206973206675727468657220696e2074686520737570706c7920636860008201527f61696e0000000000000000000000000000000000000000000000000000000000602082015250565b6000620019c960238362001631565b9150620019d6826200196b565b604082019050919050565b60006020820190508181036000830152620019fc81620019ba565b9050919050565b62001a0e81620010de565b811462001a1a57600080fd5b50565b60008151905062001a2e8162001a03565b92915050565b60006020828403121562001a4d5762001a4c62001394565b5b600062001a5d8482850162001a1d565b91505092915050565b600060608201905062001a7d600083018662001683565b62001a8c602083018562001683565b62001a9b6040830184620015f2565b949350505050565b7f4f776e61626c653a2063616c6c6572206973206e6f7420746865206f776e6572600082015250565b600062001adb60208362001631565b915062001ae88262001aa3565b602082019050919050565b6000602082019050818103600083015262001b0e8162001acc565b9050919050565b600062001b22826200107d565b9050919050565b600062001b368262001b15565b9050919050565b62001b488162001b29565b82525050565b600060608201905062001b65600083018662001b3d565b62001b74602083018562001683565b62001b83604083018462001683565b94935050505056fe608060405234801561001057600080fd5b5060405161088b38038061088b83398181016040528101906100329190610134565b816000819055508060038190555082600460006101000a81548173ffffffffffffffffffffffffffffffffffffffff021916908373ffffffffffffffffffffffffffffffffffffffff160217905550505050610187565b600080fd5b600073ffffffffffffffffffffffffffffffffffffffff82169050919050565b60006100b98261008e565b9050919050565b60006100cb826100ae565b9050919050565b6100db816100c0565b81146100e657600080fd5b50565b6000815190506100f8816100d2565b92915050565b6000819050919050565b610111816100fe565b811461011c57600080fd5b50565b60008151905061012e81610108565b92915050565b60008060006060848603121561014d5761014c610089565b5b600061015b868287016100e9565b935050602061016c8682870161011f565b925050604061017d8682870161011f565b9150509250925092565b6106f5806101966000396000f3fe60806040526004361061004e5760003560e01c80631b9265b81461006b5780632986c0e5146100755780633c8da588146100a057806383d12eef146100cb578063fd456049146100f65761005d565b3661005d5761005b610121565b005b34801561006957600080fd5b005b610073610121565b005b34801561008157600080fd5b5061008a610366565b60405161009791906103b7565b60405180910390f35b3480156100ac57600080fd5b506100b561036c565b6040516100c291906103b7565b60405180910390f35b3480156100d757600080fd5b506100e0610372565b6040516100ed91906103b7565b60405180910390f35b34801561010257600080fd5b5061010b610378565b6040516101189190610413565b60405180910390f35b6000543414610165576040517f08c379a000000000000000000000000000000000000000000000000000000000815260040161015c906104b1565b60405180910390fd5b6000600154146101aa576040517f08c379a00000000000000000000000000000000000000000000000000000000081526004016101a19061051d565b60405180910390fd5b34600160008282546101bc919061056c565b9250508190555033600260006101000a81548173ffffffffffffffffffffffffffffffffffffffff021916908373ffffffffffffffffffffffffffffffffffffffff1602179055506000600460009054906101000a900473ffffffffffffffffffffffffffffffffffffffff1673ffffffffffffffffffffffffffffffffffffffff163460035460405160240161025391906103b7565b6040516020818303038152906040527f800fb83f000000000000000000000000000000000000000000000000000000007bffffffffffffffffffffffffffffffffffffffffffffffffffffffff19166020820180517bffffffffffffffffffffffffffffffffffffffffffffffffffffffff83818316178352505050506040516102dd919061063c565b60006040518083038185875af1925050503d806000811461031a576040519150601f19603f3d011682016040523d82523d6000602084013e61031f565b606091505b5050905080610363576040517f08c379a000000000000000000000000000000000000000000000000000000000815260040161035a9061069f565b60405180910390fd5b50565b60035481565b60005481565b60015481565b600260009054906101000a900473ffffffffffffffffffffffffffffffffffffffff1681565b6000819050919050565b6103b18161039e565b82525050565b60006020820190506103cc60008301846103a8565b92915050565b600073ffffffffffffffffffffffffffffffffffffffff82169050919050565b60006103fd826103d2565b9050919050565b61040d816103f2565b82525050565b60006020820190506104286000830184610404565b92915050565b600082825260208201905092915050565b7f576520646f6e277420737570706f7274207061727469616c207061796d656e7460008201527f7300000000000000000000000000000000000000000000000000000000000000602082015250565b600061049b60218361042e565b91506104a68261043f565b604082019050919050565b600060208201905081810360008301526104ca8161048e565b9050919050565b7f4974656d20697320616c72656164792070616964210000000000000000000000600082015250565b600061050760158361042e565b9150610512826104d1565b602082019050919050565b60006020820190508181036000830152610536816104fa565b9050919050565b7f4e487b7100000000000000000000000000000000000000000000000000000000600052601160045260246000fd5b60006105778261039e565b91506105828361039e565b9250827fffffffffffffffffffffffffffffffffffffffffffffffffffffffffffffffff038211156105b7576105b661053d565b5b828201905092915050565b600081519050919050565b600081905092915050565b60005b838110156105f65780820151818401526020810190506105db565b83811115610605576000848401525b50505050565b6000610616826105c2565b61062081856105cd565b93506106308185602086016105d8565b80840191505092915050565b6000610648828461060b565b915081905092915050565b7f44656c697665727920646964206e6f7420776f726b0000000000000000000000600082015250565b600061068960158361042e565b915061069482610653565b602082019050919050565b600060208201905081810360008301526106b88161067c565b905091905056fea26469706673582212206a8a84d2e43c58074ffdf1e27f378a42352d35edcd02ddc5edba4bc66318d13564736f6c634300080e0033a2646970667358221220ef88689fa3ea0d412fd6335d88dcbff685f8888b421667cf29e2887191f1be5764736f6c634300080e0033",
  "immutableReferences": {},
  "source": "// SPDX-License-Identifier: GPL-3.0\n\npragma solidity ^0.8.0;\n\nimport \"./Ownable.sol\";\nimport \"./Item.sol\";\n\ncontract ItemManager is Ownable { \n    \n    enum SupplyChainSteps{Created, Paid, Delivered}\n\n    struct S_Item {\n        Item _item;\n        address _paidFrom;\n        string _identifier;\n        uint _priceInWei;\n        ItemManager.SupplyChainSteps _step; \n    }\n\n    mapping(uint => S_Item) public items; \n    uint index;\n    event SupplyChainStep(uint _itemIndex, uint _step, address _address);\n    \n    function createItem(string memory _identifier, uint _priceInWei) public onlyOwner {\n        Item item = new Item(this, _priceInWei, index);\n        items[index]._item = item;\n        items[index]._priceInWei = _priceInWei; \n        items[index]._step = SupplyChainSteps.Created; \n        items[index]._identifier = _identifier;\n        emit SupplyChainStep(index, uint(items[index]._step), address(item));\n        index++; \n    }\n    \n    function triggerPayment(uint _index) public payable {\n        Item item = items[_index]._item;\n        require(address(item) == msg.sender, \"Only items are allowed to update themselves\");\n        require(item.priceInWei() == msg.value, \"Not fully paid yet\");\n        require(items[index]._step == SupplyChainSteps.Created, \"Item is further in the supply chain\");\n        items[_index]._step = SupplyChainSteps.Paid;\n        items[_index]._paidFrom = items[_index]._item.paidFrom();\n        emit SupplyChainStep(_index, uint(items[_index]._step), address(item));\n    }\n\n    function triggerDelivery(uint _index) public onlyOwner {\n        require(items[_index]._step == SupplyChainSteps.Paid, \"Item is further in the supply chain\");\n        items[_index]._step = SupplyChainSteps.Delivered;\n        emit SupplyChainStep(_index, uint(items[_index]._step), address(items[_index]._item));\n    }\n\n    function getItems() public view returns(S_Item[] memory) {\n        S_Item[] memory filteredItems = new S_Item[](index);\n        uint count;\n        for (uint i = 0; i < index; i++) {\n            if (isOwner() || items[i]._paidFrom == msg.sender || items[i]._step == SupplyChainSteps.Created) {\n                filteredItems[count] = items[i];\n                count++;\n            }\n        }\n\n        S_Item[] memory result = new S_Item[](count);\n        for(uint i = 0; i<count; i++){\n            result[i] = filteredItems[i];\n        }\n\n        return result;\n    }\n}",
  "sourcePath": "/Users/oleksandrrokytskyi/projects/blockchain/item-manager-smart-contract/contracts/ItemManager.sol",
  "compiler": {
    "name": "solc",
    "version": "0.8.14+commit.80d49f37.Emscripten.clang"
  },
  "schemaVersion": "3.4.7",
  "updatedAt": "2022-05-19T10:28:21.605Z",
  "networkType": "ethereum",
  "devdoc": {
    "kind": "dev",
    "methods": {
      "isOwner()": {
        "details": "Returns true if the caller is the current owner. "
      }
    },
    "version": 1
  },
  "userdoc": {
    "kind": "user",
    "methods": {},
    "version": 1
  }
}